:020000040800F2
:1000000000300020D92A0008212B0008212B0008ED
:10001000212B0008212B0008212B000800000000E4
:10002000000000000000000000000000212B00087C
:10003000212B000800000000212B0008212B0008C4
:1000400000000000000000000000000000000000B0
:1000500000000000000000000000000000000000A0
:100060000000000000000000000000000000000090
:100070000000000000000000000000000000000080
:100080000000000000000000000000000000000070
:100090000000000000000000000000000000000060
:1000A0000000000000000000000000000000000050
:1000B0000000000000000000000000000000000040
:1000C0000000000000000000000000000000000030
:1000D0000000000000000000000000000000000020
:1000E0000000000000000000000000000000000010
:1000F0000000000000000000000000000000000000
:1001000000000000000000000000000000000000EF
:1001100000000000000000000000000000000000DF
:1001200000000000000000000000000000000000CF
:1001300000000000000000000000000000000000BF
:1001400000000000000000000000000000000000AF
:10015000000000000000000000000000000000009F
:10016000000000000000000000000000000000008F
:10017000000000000000000000000000000000007F
:08018000000000000000000077
:1001880010B5054C237833B9044B13B10448AFF3C9
:1001980000800123237010BD100000200000000023
:1001A8006C2B000808B5034B1BB103490348AFF398
:1001B800008008BD00000000140000206C2B00081F
:1001C8002DE9B00387B000AF78604FF000024FF020
:1001D8000003C7E904230023FB6021E0FB687A6879
:1001E80013441B78DBB200221C461546D7E90423CA
:1001F80042EA040843EA0509C7E90489FB68072BB2
:100208000BD0D7E904014FF000024FF000030B02B6
:1002180043EA10630202C7E90423FB680133FB6069
:10022800FB68072BDADDD7E90423104619461C378B
:10023800BD46BDE8B00370472DE9B00387B000AFF5
:1002480078604FF000024FF00003C7E90423002351
:10025800FB6021E0FB687A6813441B78DBB200225C
:100268001C461546D7E9042342EA040843EA05096F
:10027800C7E90489FB68012B0BD0D7E904014FF0CB
:1002880000024FF000030B0243EA10630202C7E9C1
:100298000423FB680133FB60FB68012BDADDD7E937
:1002A8000423104619461C37BD46BDE8B003704705
:1002B80080B582B000AF78600B46FB707868FFF7B6
:1002C8007FFF02460B460449C1E900230023184674
:1002D8000837BD4680BD00BF3800002080B588B013
:1002E80000AF78600B46FB707868FFF7A5FF024601
:1002F8000B461346FB61FB69BB6140F233437B61EC
:1003080000F032FCBA697B691344A3F634033B61FD
:1003180000BF00BF00BF00BF00BF00F030FC3B695A
:100328001B12DBB203F00703DBB23B733B69DBB2A2
:100338007B7307F10C031A460221722000F010FBB0
:10034800002318462037BD4680BD0000F0B587B0B1
:1003580000AF7860F970002179611EE01649D1E993
:1003680000017C69C4F10704E400C4F12006A4F18B
:10037800200520FA04F201FA06F6324321FA05F5BF
:100388002A4321FA04F3D4B207F10C007969014435
:100398002046087079690131796179690729DDDDBD
:1003A80007F10C031A460821722000F0D9FA00233D
:1003B80018461C37BD46F0BD38000020F0B587B0A0
:1003C80000AF7860F970002179611EE01649D1E923
:1003D80000017C69C4F10704E400C4F12006A4F11B
:1003E800200520FA04F201FA06F6324321FA05F54F
:1003F8002A4321FA04F3D4B207F10C0079690144C5
:100408002046087079690131796179690729DDDD4C
:1004180007F10C031A460821722000F0A1FA002304
:1004280018461C37BD46F0BD3000002080B500AF2F
:1004380000F0CCFA00F01CFB00F06AFB00F03EF97B
:100448000B4A0821662000F053F90A4A022173205A
:1004580000F04EF9084A0021632000F049F9074AE4
:100468000021682000F044F900F098F9FCE700BF8B
:10047800B9020008E502000855030008C503000892
:1004880080B483B000AF78600B46FB700123184638
:100498000C37BD4680BC704780B584B000AF78602B
:1004A8000B46FB70074B1B68DBB2FB7307F10F03AE
:1004B8001A460121722000F053FA0023184610371B
:1004C800BD4680BD5000002080B590B000AF786078
:1004D8000B46FB70002387F83F303AE097F83F302F
:1004E80097F83F2027491B010B44197813465B00F6
:1004F800134407F140021344343B0A461A7097F834
:100508003F30204A1B01134404331B6897F83F20EF
:10051800D9B213465B00134407F140021344333B3E
:100528000A461A7097F83F3097F83F2015491B0183
:100538000B440C33197813465B00134407F140024F
:100548001344323B0A461A7097F83F30013387F854
:100558003F3097F83F200C4B1B68DBB29A42BDDB5B
:10056800094B1B68DBB21A4652001344DBB207F191
:100578000C021946722000F0F3F9002318464037A0
:10058800BD4680BD540000205000002080B487B0D4
:1005980000AFF860B9607A6000237B6183E07B6913
:1005A8005B001A46BB6813441B78FB747B695B00CD
:1005B8000133BA6813441B78BB74BB7C2F2B0AD950
:1005C800BB7C392B07D87B697A681344BA7C303AEC
:1005D800D2B21A701DE0BB7C402B0AD9BB7C462BDB
:1005E80007D87B697A681344BA7C373AD2B21A7052
:1005F8000FE0BB7C602B0AD9BB7C662B07D87B69D4
:100608007A681344BA7C573AD2B21A7001E00123CF
:100618004FE0FB7C2F2B13D9FB7C392B10D87B693F
:100628007A6813441B785AB2FB7C303B1B015BB2DF
:10063800134359B27B697A681344CAB21A702FE01F
:10064800FB7C402B13D9FB7C462B10D87B697A683E
:1006580013441B785AB2FB7C373B1B015BB2134334
:1006680059B27B697A681344CAB21A7018E0FB7CE5
:10067800602B13D9FB7C662B10D87B697A681344EE
:100688001B785AB2FB7C573B1B015BB2134359B230
:100698007B697A681344CAB21A7001E0012308E042
:1006A8007B6901337B617A69FB689A42FFF677AF11
:1006B800002318461C37BD4680BC704780B500AF84
:1006C800084A0021762000F013F8074A0021772015
:1006D80000F00EF8054A0021792000F009F800BF63
:1006E80080BD00BF89040008D1040008A1040008E7
:1006F80080B584B000AF0346B9607A60FB73F87BBD
:1007080000237A68B96800F005F8034618461037E0
:10071800BD4680BD80B485B000AFB9607A601A4626
:100728000346FB731346BB731A4B1B680F2B01DD83
:10073800012329E0BB68BF2B01D9012324E0154B15
:100748001B68154A1B011344FA7B1A70114B1B686E
:10075800114A1B0113440433BA681A600D4B1B6815
:100768000D4A1B01134408337A681A60094B1B6849
:10077800094A1B0113440C33BA7B1A70054B1B68DA
:100788000133044A1360002318461437BD4680BC61
:10079800704700BF500000205400002080B5ADF520
:1007A800167D00AF00F0F6F9034687F84F320023B4
:1007B800C7F854320EE0684AD7F854321B01134484
:1007C8001B7897F84F229A420BD0D7F8543201334E
:1007D800C7F85432614B1B68D7F854229A42EADBB7
:1007E80000E000BF5D4B1B68D7F854229A4200F026
:1007F800A680594AD7F854321B0113440C331B788E
:1008080003F00103002B2DD007F51673A3F2512333
:1008180000221A7000F0BEF903461A4607F516734F
:10082800A3F515731A7000F0B5F903461A4607F5D3
:100838001673A3F515735A70FA1D3B1D194601204E
:10084800FFF7A4FE0346002B7BD107F51673A3F22E
:1008580051231B781946404AD7F854321B011344D8
:10086800043319600023C7F850321BE000F092F9F6
:10087800034687F84F3297F84F320A2B63D097F820
:100888004F320D2B5FD007F51673A3F5C672D7F854
:100898005032134497F84F221A70D7F85032013368
:1008A800C7F850322C4AD7F854321B01134404338A
:1008B8001B685A00D7F850329A42D7D800F06AF924
:1008C800034687F84F3297F84F320A2B03D097F830
:1008D8004F320D2B39D1204AD7F854321B0113441B
:1008E80004331B68184607F10C0207F1CC031946BC
:1008F800FFF74CFE0346002B29D1174AD7F854328C
:100908001B01134408331B681349D7F854221201FA
:100918000A4404321268D1B207F10C021046984713
:1009280003461A4607F51673A3F514731A7007F1F0
:1009380008031A4601217A2000F012F808E000BFE7
:1009480006E000BF04E000BF02E000BF00E000BF17
:1009580007F51677BD4680BD5400002050000020E2
:1009680080B584B000AF03463A60FB710B46BB719B
:10097800FB79184600F02CF90023FB6019E0FB68AE
:100988003A6813441B781B09DBB21A460E4B9B5C72
:10099800184600F01DF9FB683A6813441B7803F009
:1009A8000F03094AD35C184600F012F9FB680133BB
:1009B800FB60BB79FA689A42E1DB0A2000F008F98B
:1009C80000BF1037BD4680BD0000002080B596B03E
:1009D80000AF0323FB624FF4A0233B630023FB63B8
:1009E8000023FB6407F12C03184600F025F90F23B8
:1009F800BB610123FB6100233B6200237B62002370
:100A0800BB6200237B6507F11803796D184601F076
:100A180023F9154B5B69144A43F400235361124BC5
:100A28005B6903F400233B603B684FF4C0437B6081
:100A38000123BB600023FB6003233B613B1D194678
:100A48000A4801F093FA01224FF40051074801F0D7
:100A58000BFC01224FF48041044801F005FC00BF63
:100A68005837BD4680BD00BF00100240000800484E
:100A780080B588B000AF4FF4C063FB6002233B61D0
:100A880001237B610323BB610723FB611D4B5B696A
:100A98001C4A43F4003353611A4B5B6903F4003377
:100AA800BB60BB6807F10C0319464FF0904001F09A
:100AB8005DFA154B154A1A60134B4FF416425A60EB
:100AC800114B00229A60104B0022DA600E4B002274
:100AD8001A610D4B00229A610B4B0C225A61094B8B
:100AE8009B69084A43F480439361064B9B6903F46E
:100AF80080437B607B68044801F017FE00BF203705
:100B0800BD4680BD0010024054010020003801405D
:100B180080B586B000AF134B5B69124A43F40033CB
:100B28005361104B5B6903F400333B603B684FF43F
:100B380080537B600123BB600023FB6003233B6180
:100B48003B1D19464FF0904001F010FA00224FF477
:100B580080514FF0904001F087FB00BF1837BD4629
:100B680080BD00BF0010024080B500AF01224FF4E5
:100B780080514FF0904001F077FB00BF80BD80B5F9
:100B880000AF00224FF480514FF0904001F06CFB11
:100B980000BF80BD80B582B000AF05E00A4B1B6A7C
:100BA800094A43F008031362F91D41F28833012210
:100BB800064801F0D8FE0346002BEFD1FB79184612
:100BC8000837BD4680BD00BF0038014054010020F1
:100BD80080B584B000AF0346FB71FB79FB7307F166
:100BE8000F0141F288330122034801F02FFE00BFB4
:100BF8001037BD4680BD00BF5401002080B400AF4F
:100C0800044B1B685A1C03490A601846BD4680BC41
:100C1800704700BFC401002080B400AF4FF4E10367
:100C28001846BD4680BC704780B400AF4FF4E1035E
:100C38001846BD4680BC704780B5ADF5007D00AF55
:100C480007F50073A3F5FE7318600023C7F8F831A1
:100C580007F50073A3F5FE731B681B6803F0010317
:100C6800002B00F08081BE4B5B6803F00C03042B63
:100C78000CD0BB4B5B6803F00C03082B5DD1B84B61
:100C88005B6803F48033B3F5803F56D14FF40033EB
:100C9800C7F8F431D7F8F43193FAA3F3C7F8F03171
:100CA800D7F8F031B3FA83F3DBB25B09DBB243F078
:100CB8000103DBB2012B02D1A94B1B6815E04FF4ED
:100CC8000033C7F8EC31D7F8EC3193FAA3F3C7F83F
:100CD800E8314FF40033C7F8E431D7F8E43193FA38
:100CE800A3F3C7F8E0319E4B5B6A4FF40032C7F8B4
:100CF800DC21D7F8DC2192FAA2F2C7F8D821D7F87C
:100D0800D821B2FA82F252B242F0200252B2D2B2E2
:100D180002F01F02012101FA02F21340002B00F039
:100D2800218107F50073A3F5FE731B685B68002B30
:100D380040F01881012300F087BF07F50073A3F581
:100D4800FE731B685B68B3F5803F06D1844B1B6854
:100D5800834A43F48033136036E007F50073A3F544
:100D6800FE731B685B68002B0CD17D4B1B687C4AAB
:100D780023F4803313607A4B1B68794A23F4802369
:100D8800136021E007F50073A3F5FE731B685B6829
:100D9800B3F5A02F0CD1724B1B68714A43F4802322
:100DA80013606F4B1B686E4A43F4803313600BE08B
:100DB8006B4B1B686A4A23F480331360684B1B68CB
:100DC800674A23F480231360654BDB6A23F00F0224
:100DD80007F50073A3F5FE731B689B68604913430E
:100DE800CB6207F50073A3F5FE731B685B68002BE5
:100DF8005AD0FFF703FFC7F8F8010AE0FFF7FEFE35
:100E08000246D7F8F831D31A642B02D9032300F02D
:100E18001BBF4FF40033C7F8D431D7F8D43193FA55
:100E2800A3F3C7F8D031D7F8D031B3FA83F3DBB2E4
:100E38005B09DBB243F00103DBB2012B02D1484B63
:100E48001B6815E04FF40033C7F8CC31D7F8CC3124
:100E580093FAA3F3C7F8C8314FF40033C7F8C43185
:100E6800D7F8C43193FAA3F3C7F8C0313C4B5B6A97
:100E78004FF40032C7F8BC21D7F8BC2192FAA2F28D
:100E8800C7F8B821D7F8B821B2FA82F252B242F0C4
:100E9800200252B2D2B202F01F02012101FA02F27C
:100EA8001340002BAAD05EE0FFF7A8FEC7F8F801B0
:100EB8000AE0FFF7A3FE0246D7F8F831D31A642BED
:100EC80002D9032300F0C0BE4FF40033C7F8B43191
:100ED800D7F8B43193FAA3F3C7F8B031D7F8B031E3
:100EE800B3FA83F3DBB25B09DBB243F00103DBB295
:100EF800012B02D11A4B1B6815E04FF40033C7F8D9
:100F0800AC31D7F8AC3193FAA3F3C7F8A8314FF452
:100F18000033C7F8A431D7F8A43193FAA3F3C7F87C
:100F2800A0310F4B5B6A4FF40032C7F89C21D7F809
:100F38009C2192FAA2F2C7F89821D7F89821B2FA20
:100F480082F252B242F0200252B2D2B202F01F0232
:100F5800012101FA02F21340002BAAD103E000BFDD
:100F68000010024000BF07F50073A3F5FE731B686D
:100F78001B6803F00203002B00F07E81A64B5B6820
:100F880003F00C03002B0BD0A34B5B6803F00C039E
:100F9800082B73D1A04B5B6803F48033002B6DD111
:100FA8000223C7F89431D7F8943193FAA3F3C7F81A
:100FB8009031D7F89031B3FA83F3DBB25B09DBB237
:100FC80043F00103DBB2012B02D1934B1B6813E002
:100FD8000223C7F88C31D7F88C3193FAA3F3C7F8FA
:100FE80088310223C7F88431D7F8843193FAA3F300
:100FF800C7F88031884B5B6A0222C7F87C21D7F892
:101008007C2192FAA2F2C7F87821D7F87821B2FAAF
:1010180082F252B242F0200252B2D2B202F01F0261
:10102800012101FA02F21340002B0AD007F50073E0
:10103800A3F5FE731B681B69012B02D0012300F086
:1010480003BE754B1B6823F0F80207F50073A3F580
:10105800FE731B685969F823C7F87431D7F87431DF
:1010680093FAA3F3C7F87031D7F87031B3FA83F362
:1010780001FA03F3684913430B60FDE007F50073B9
:10108800A3F5FE731B681B69002B00F08880012301
:10109800C7F86C31D7F86C3193FAA3F3C7F8683105
:1010A800D7F86831B3FA83F303F1845303F5841353
:1010B8009B001A4601231360FFF7A0FDC7F8F8014B
:1010C8000AE0FFF79BFD0246D7F8F831D31A022B46
:1010D80002D9032300F0B8BD0223C7F86431D7F85A
:1010E800643193FAA3F3C7F86031D7F86031B3FAE3
:1010F80083F3DBB25B09DBB243F00103DBB2012B04
:1011080002D1454B1B6813E00223C7F85C31D7F8BE
:101118005C3193FAA3F3C7F858310223C7F8543166
:10112800D7F8543193FAA3F3C7F850313A4B5B6AB6
:101138000222C7F84C21D7F84C2192FAA2F2C7F83C
:101148004821D7F84821B2FA82F252B242F020027E
:1011580052B2D2B202F01F02012101FA02F2134088
:10116800002BAED02C4B1B6823F0F80207F5007358
:10117800A3F5FE731B685969F823C7F84431D7F8FB
:10118800443193FAA3F3C7F84031D7F84031B3FAA2
:1011980083F301FA03F3204913430B606CE0012346
:1011A800C7F83C31D7F83C3193FAA3F3C7F8383184
:1011B800D7F83831B3FA83F303F1845303F5841372
:1011C8009B001A4600231360FFF718FDC7F8F801C3
:1011D8000AE0FFF713FD0246D7F8F831D31A022BBD
:1011E80002D9032300F030BD0223C7F83431D7F801
:1011F800343193FAA3F3C7F83031D7F83031B3FA62
:1012080083F3DBB25B09DBB243F00103DBB2012BF2
:1012180004D1014B1B6815E0001002400223C7F8F7
:101228002C31D7F82C3193FAA3F3C7F828310223CD
:10123800C7F82431D7F8243193FAA3F3C7F820313B
:10124800C54B5B6A0222C7F81C21D7F81C2192FA09
:10125800A2F2C7F81821D7F81821B2FA82F252B2CE
:1012680042F0200252B2D2B202F01F02012101FA6A
:1012780002F21340002BACD107F50073A3F5FE73FF
:101288001B681B6803F00803002B00F00A8107F5B0
:101298000073A3F5FE731B689B69002B73D00123B1
:1012A800C7F81431D7F8143193FAA3F3C7F81031FB
:1012B800D7F81031B3FA83F31A46A84B13449B00AE
:1012C8001A4601231360FFF799FCC7F8F8010AE0F2
:1012D800FFF794FC0246D7F8F831D31A022B02D94B
:1012E800032300F0B1BC0223C7F80C31D7F80C3146
:1012F80093FAA3F3C7F808310223C7F80431D7F8E3
:10130800043193FAA3F207F50073A3F580731A600A
:1013180007F50073A3F5827302221A6007F50073BC
:10132800A3F582731B6893FAA3F207F50073A3F57C
:1013380084731A60884B5A6A07F50073A3F586739D
:101348000221196007F50073A3F586731B6893FAE9
:10135800A3F107F50073A3F58873196007F5007307
:10136800A3F588731B68B3FA83F35BB243F0600399
:101378005BB2DBB203F01F03012101FA03F3134050
:10138800002BA5D08DE007F50073A3F58A73012221
:101398001A6007F50073A3F58A731B6893FAA3F222
:1013A80007F50073A3F58C731A6007F50073A3F5AE
:1013B8008C731B68B3FA83F31A46684B13449B007B
:1013C8001A4600231360FFF719FCC7F8F8010AE072
:1013D800FFF714FC0246D7F8F831D31A022B02D9CA
:1013E800032300F031BC07F50073A3F58E730222C6
:1013F8001A6007F50073A3F58E731B6893FAA3F2BE
:1014080007F50073A3F590731A6007F50073A3F549
:10141800927302221A6007F50073A3F592731B6892
:1014280093FAA3F207F50073A3F594731A6007F50E
:101438000073A3F5967302221A6007F50073A3F5EB
:1014480096731B6893FAA3F207F50073A3F59873D4
:101458001A60414B5A6A07F50073A3F59A73022183
:10146800196007F50073A3F59A731B6893FAA3F143
:1014780007F50073A3F59C73196007F50073A3F5CE
:101488009C731B68B3FA83F35BB243F060035BB2EF
:10149800DBB203F01F03012101FA03F31340002B11
:1014A80096D107F50073A3F5FE731B681B6803F05C
:1014B8000403002B00F0A481002387F8FF31264B9A
:1014C800DB6903F08053002B16D1234BDB69224ADA
:1014D80043F08053D361204BDB6903F0805207F55A
:1014E8000073A3F5FA731A6007F50073A3F5FA738E
:1014F8001B68012387F8FF31194B1B6803F48073BD
:10150800002B1AD1164B1B68154A43F480731360DD
:10151800FFF774FBC7F8F80109E0FFF76FFB024615
:10152800D7F8F831D31A642B01D903238CE30C4B79
:101538001B6803F48073002BEFD007F50073A3F545
:10154800FE731B68DB68012B0CD1034B1B6A024A34
:1015580043F0010313623BE0001002402081901029
:101568000070004007F50073A3F5FE731B68DB6885
:10157800002B0CD17F4B1B6A7E4A23F001031362B8
:101588007C4B1B6A7B4A23F00403136220E007F5B7
:101598000073A3F5FE731B68DB68052B0CD1754B34
:1015A8001B6A744A43F004031362724B1B6A714A44
:1015B80043F0010313620BE06E4B1B6A6D4A23F084
:1015C800010313626B4B1B6A6A4A23F0040313621C
:1015D80007F50073A3F5FE731B68DB68002B00F0AA
:1015E8008280FFF70BFBC7F8F8010BE0FFF706FB5B
:1015F8000246D7F8F831D31A41F28832934201D91A
:10160800032321E307F50073A3F59E7302221A60F2
:1016180007F50073A3F59E731B6893FAA3F207F509
:101628000073A3F5A0731A6007F50073A3F5A273FE
:1016380002221A6007F50073A3F5A2731B6893FAD8
:10164800A3F207F50073A3F5A4731A6007F50073F6
:10165800A3F5A4731B68B3FA83F3DBB25B09DBB2AF
:1016680043F00203DBB2022B02D1424B1B6A13E0A8
:1016780007F50073A3F5A67302221A6007F5007335
:10168800A3F5A6731B6893FAA3F207F50073A3F5F5
:10169800A8731A60374B5B6A07F50072A2F5AA7245
:1016A8000221116007F50072A2F5AA72126892FA77
:1016B800A2F107F50072A2F5AC72116007F500728D
:1016C800A2F5AC721268B2FA82F252B242F040024B
:1016D80052B2D2B202F01F02012101FA02F2134003
:1016E800002B83D082E0FFF789FAC7F8F8010BE0F6
:1016F800FFF784FA0246D7F8F831D31A41F2883254
:10170800934201D903239FE207F50073A3F5AE7353
:1017180002221A6007F50073A3F5AE731B6893FAEB
:10172800A3F207F50073A3F5B0731A6007F5007309
:10173800A3F5B27302221A6007F50073A3F5B2731A
:101748001B6893FAA3F207F50073A3F5B4731A6044
:1017580007F50073A3F5B4731B68B3FA83F3DBB220
:101768005B09DBB243F00203DBB2022B04D1014B6D
:101778001B6A15E00010024007F50073A3F5B67365
:1017880002221A6007F50073A3F5B6731B6893FA73
:10179800A3F207F50073A3F5B8731A60AC4B5B6A44
:1017A80007F50072A2F5BA720221116007F50072FE
:1017B800A2F5BA72126892FAA2F107F50072A2F5C0
:1017C800BC72116007F50072A2F5BC721268B2FA19
:1017D80082F252B242F0400252B2D2B202F01F027A
:1017E800012101FA02F21340002B81D197F8FF3151
:1017F800012B05D1964BDB69954A23F08053D361C1
:1018080007F50073A3F5FE731B68DB69002B00F076
:101818001A828F4B5B6803F00C03082B00F01182CF
:1018280007F50073A3F5FE731B68DB69022B40F014
:10183800628107F50073A3F5BE734FF080721A60DA
:1018480007F50073A3F5BE731B6893FAA3F207F5B7
:101858000073A3F5C0731A6007F50073A3F5C0738E
:101868001B68B3FA83F303F1845303F584139B00D5
:101878001A4600231360FFF7C1F9C7F8F80109E019
:10188800FFF7BCF90246D7F8F831D31A022B01D971
:101898000323D9E107F50073A3F5C2734FF0007273
:1018A8001A6007F50073A3F5C2731B6893FAA3F2D5
:1018B80007F50073A3F5C4731A6007F50073A3F561
:1018C800C4731B68B3FA83F3DBB25B09DBB243F082
:1018D8000103DBB2012B02D15D4B1B6827E007F542
:1018E8000073A3F5C6734FF000721A6007F5007312
:1018F800A3F5C6731B6893FAA3F207F50073A3F563
:10190800C8731A6007F50073A3F5CA734FF0007225
:101918001A6007F50073A3F5CA731B6893FAA3F25C
:1019280007F50073A3F5CC731A60494B5B6A07F59A
:101938000072A2F5CE724FF00071116007F50072C7
:10194800A2F5CE72126892FAA2F107F50072A2F51A
:10195800D072116007F50072A2F5D0721268B2FA5F
:1019680082F252B242F0200252B2D2B202F01F0208
:10197800012101FA02F21340002B81D1344B5B683C
:1019880023F4741207F50073A3F5FE731B68596AF4
:1019980007F50073A3F5FE731B681B6A0B432C49FC
:1019A80013434B6007F50073A3F5D2734FF08072B1
:1019B8001A6007F50073A3F5D2731B6893FAA3F2B4
:1019C80007F50073A3F5D4731A6007F50073A3F540
:1019D800D4731B68B3FA83F303F1845303F58413B8
:1019E8009B001A4601231360FFF708F9C7F8F801AE
:1019F80009E0FFF703F90246D7F8F831D31A022BAA
:101A080001D9032320E107F50073A3F5D6734FF03E
:101A180000721A6007F50073A3F5D6731B6893FA72
:101A2800A3F207F50073A3F5D8731A6007F50073DE
:101A3800A3F5D8731B68B3FA83F3DBB25B09DBB297
:101A480043F00103DBB2012B04D1014B1B6829E0F1
:101A58000010024007F50073A3F5DA734FF0007227
:101A68001A6007F50073A3F5DA731B6893FAA3F2FB
:101A780007F50073A3F5DC731A6007F50073A3F587
:101A8800DE734FF000721A6007F50073A3F5DE737A
:101A98001B6893FAA3F207F50073A3F5E0731A60C5
:101AA8006C4B5B6A07F50072A2F5E2724FF00071A9
:101AB800116007F50072A2F5E272126892FAA2F1BB
:101AC80007F50072A2F5E472116007F50072A2F53D
:101AD800E4721268B2FA82F252B242F0200252B2B2
:101AE800D2B202F01F02012101FA02F21340002BC8
:101AF8003FF47FAFA7E007F50073A3F5E6734FF057
:101B080080721A6007F50073A3F5E6731B6893FAF1
:101B1800A3F207F50073A3F5E8731A6007F50073DD
:101B2800A3F5E8731B68B3FA83F303F1845303F551
:101B380084139B001A4600231360FFF75FF8C7F869
:101B4800F80109E0FFF75AF80246D7F8F831D31A36
:101B5800022B01D9032377E007F50073A3F5EA7395
:101B68004FF000721A6007F50073A3F5EA731B685B
:101B780093FAA3F207F50073A3F5EC731A6007F55F
:101B88000073A3F5EC731B68B3FA83F3DBB25B094C
:101B9800DBB243F00103DBB2012B02D12D4B1B68F2
:101BA80027E007F50073A3F5EE734FF000721A6093
:101BB80007F50073A3F5EE731B6893FAA3F207F514
:101BC8000073A3F5F0731A6007F50073A3F5F273B9
:101BD8004FF000721A6007F50073A3F5F2731B68E3
:101BE80093FAA3F207F50073A3F5F4731A60194B7F
:101BF8005B6A07F50072A2F5F6724FF0007111608A
:101C080007F50072A2F5F672126892FAA2F107F5CA
:101C18000072A2F5F872116007F50072A2F5F87269
:101C28001268B2FA82F252B242F0200252B2D2B232
:101C380002F01F02012101FA02F21340002B81D1A8
:101C480001E0012300E00023184607F50077BD46B0
:101C580080BD00BF0010024080B59CB000AF786026
:101C680039600023FB66984B1B6803F007033A684A
:101C78009A4210D9944B1B6823F0070292493B689B
:101C880013430B60904B1B6803F007033A689A42B2
:101C980001D001235AE17B681B6803F00203002B83
:101CA80008D08A4B5B6823F0F0027B689B68874901
:101CB80013434B607B681B6803F00103002B00F0A3
:101CC8000D817B685B68012B3DD14FF40033BB6607
:101CD800BB6E93FAA3F37B667B6EB3FA83F3DBB236
:101CE8005B09DBB243F00103DBB2012B02D1774B76
:101CF8001B680FE04FF400333B663B6E93FAA3F387
:101D0800FB654FF40033BB65BB6D93FAA3F37B65AA
:101D18006E4B5B6A4FF400323A653A6D92FAA2F262
:101D2800FA64FA6CB2FA82F252B242F0200252B26B
:101D3800D2B202F01F02012101FA02F21340002B75
:101D48007DD1012302E17B685B68022B3DD14FF016
:101D58000073BB64BB6C93FAA3F37B647B6CB3FA2C
:101D680083F3DBB25B09DBB243F00103DBB2012B87
:101D780002D1564B1B680FE04FF000733B643B6C7D
:101D880093FAA3F3FB634FF00073BB63BB6B93FA47
:101D9800A3F37B634D4B5B6A4FF000723A633A6B77
:101DA80092FAA2F2FA62FA6AB2FA82F252B242F0F5
:101DB800200252B2D2B202F01F02012101FA02F24D
:101DC8001340002B3BD10123C0E00223BB62BB6A56
:101DD80093FAA3F37B627B6AB3FA83F3DBB25B0902
:101DE800DBB243F00103DBB2012B02D1374B1B6896
:101DF8000DE002233B623B6A93FAA3F3FB610223E3
:101E0800BB61BB6993FAA3F37B61304B5B6A022227
:101E18003A613A6992FAA2F2FA60FA68B2FA82F280
:101E280052B242F0200252B2D2B202F01F02012195
:101E380001FA02F21340002B01D1012386E0234B63
:101E48005B6823F003027B685B68204913434B609F
:101E5800FEF7D4FEF8667B685B68012B12D10AE0B6
:101E6800FEF7CCFE0246FB6ED31A41F2883293424B
:101E780001D903236AE0154B5B6803F00C03042BBC
:101E8800EED12BE07B685B68022B21D10AE0FEF7DC
:101E9800B5FE0246FB6ED31A41F28832934201D94D
:101EA800032353E0094B5B6803F00C03082BEED1C6
:101EB80014E0FEF7A3FE0246FB6ED31A41F2883205
:101EC800934205D9032341E000200240001002405C
:101ED800204B5B6803F00C03002BEAD11E4B1B68F8
:101EE80003F007033A689A4210D21B4B1B6823F091
:101EF800070219493B6813430B60174B1B6803F033
:101F080007033A689A4201D001231FE07B681B68E7
:101F180003F00403002B08D00E4B5B6823F4E06247
:101F28007B68DB680B4913434B607B681B6803F0D5
:101F38000803002B09D0074B5B6823F460527B68C9
:101F48001B69DB00034913434B60002318467037B5
:101F5800BD4680BD001002400020024080B400AFA2
:101F68004FF4E1031846BD4680BC704780B487B083
:101F780000AF7860396000237B610023FB60002399
:101F88003B6154E13B681A6801217B6901FA03F35C
:101F98001340FB60FB68002B00F046813B685B68E0
:101FA800022B03D03B685B68122B23D17B69DA08CC
:101FB8007B68083253F822303B617B6903F00703E2
:101FC8009B000F2202FA03F3DB433A6913403B619B
:101FD8003B681A697B6903F007039B0002FA03F365
:101FE8003A6913433B617B69DA087B6808323969CF
:101FF80043F822107B681B683B617B695B00032206
:1020080002FA03F3DB433A6913403B613B685B68C0
:1020180003F003027B695B0002FA03F33A69134396
:102028003B617B683A691A603B685B68012B0BD09F
:102038003B685B68022B07D03B685B68112B03D0B9
:102048003B685B68122B30D17B689B683B617B697E
:102058005B00032202FA03F3DB433A6913403B6156
:102068003B68DA687B695B0002FA03F33A69134359
:102078003B617B683A699A607B685B683B610122D7
:102088007B6902FA03F3DB433A6913403B613B681F
:102098005B681B0903F001027B6902FA03F33A69E2
:1020A80013433B617B683A695A607B68DB683B6134
:1020B8007B695B00032202FA03F3DB433A691340AE
:1020C8003B613B689A687B695B0002FA03F33A69F3
:1020D80013433B617B683A69DA603B685B6803F0ED
:1020E8008053002B00F0A080584B9B69574A43F05F
:1020F80001039361554B9B6903F00103BB60BB6807
:10210800534A7B699B08023352F823303B617B6951
:1021180003F003039B000F2202FA03F3DB433A693F
:1021280013403B617B68B3F1904F19D07B68494AF3
:10213800934213D07B68484A93420DD07B68474A44
:10214800934207D07B68464A934201D1042308E0B2
:10215800052306E0032304E0022302E0012300E054
:1021680000237A6902F00302920093403A6913430C
:102178003B6137497B699B0802333A6941F8232060
:10218800384B1B683B61FB68DB433A6913403B6192
:102198003B685B6803F48033002B03D03A69FB6823
:1021A80013433B612F4A3B6913602E4B5B683B61CD
:1021B800FB68DB433A6913403B613B685B6803F4A7
:1021C8000033002B03D03A69FB6813433B61254A6F
:1021D8003B695360234B9B683B61FB68DB433A696F
:1021E80013403B613B685B6803F48013002B03D00A
:1021F8003A69FB6813433B611A4A3B699360194B80
:10220800DB683B61FB68DB433A6913403B613B6831
:102218005B6803F40013002B03D03A69FB6813438F
:102228003B61104A3B69D3607B6901337B613B6842
:102238001A687B6922FA03F3002B7FF4A3AE00BF70
:1022480000BF1C37BD4680BC704700BF001002406D
:10225800000001400004004800080048000C004845
:10226800001000480004014080B483B000AF7860DB
:102278000B467B8013467B707B78002B03D07A88D3
:102288007B689A6102E07A887B689A6200BF0C37A3
:10229800BD4680BC7047000080B586B000AF78604E
:1022A8000023FB601023FB7500237B810023BB8286
:1022B8000023FB747B689A687B681B691A437B68F8
:1022C8005B691A437B68DB691343FB607B681B68A7
:1022D8001B6823F4164323F00C037A681268F96824
:1022E8000B4313607B681B685B6823F440517B6871
:1022F800DA687B681B680A435A607B689A697B685E
:102308001B6A1343FB607B681B689B6823F430617E
:102318007B681B68FA680A439A607B681B68A14A55
:10232800934220D1A04B1B6B03F00303032B17D858
:1023380001A252F823F000BF512300085D230008D2
:1023480063230008572300080123FB75B5E0022327
:10235800FB75B2E00423FB75AFE00823FB75ACE026
:102368001023FB75A9E07B681B68904A934224D12F
:102378008D4B1B6B03F44033B3F5403F11D0B3F5DD
:10238800403F17D8B3F5003F11D0B3F5003F11D83F
:10239800002B03D0B3F5803F06D00BE00023FB757C
:1023A8008BE00223FB7588E00423FB7585E0082396
:1023B800FB7582E01023FB757FE07B681B687C4A15
:1023C800934224D1784B1B6B03F44023B3F5402F81
:1023D80011D0B3F5402F17D8B3F5002F11D0B3F5AE
:1023E800002F11D8002B03D0B3F5802F06D00BE0B7
:1023F8000023FB7561E00223FB755EE00423FB7597
:102408005BE00823FB7558E01023FB7555E07B68FB
:102418001B68684A934224D1634B1B6B03F4401337
:10242800B3F5401F11D0B3F5401F17D8B3F5001FFF
:1024380011D0B3F5001F11D8002B03D0B3F5801FBE
:1024480006D00BE00023FB7537E00223FB7534E070
:102458000423FB7531E00823FB752EE01023FB7580
:102468002BE07B681B68544A934224D14E4B1B6B6C
:1024780003F44003B3F5400F11D0B3F5400F17D85C
:10248800B3F5000F11D0B3F5000F11D8002B03D00E
:10249800B3F5800F06D00BE00023FB750DE0022397
:1024A800FB750AE00423FB7507E00823FB7504E0CD
:1024B8001023FB7501E01023FB757B68DB69B3F51E
:1024C800004F7BD1FB7D082B56D801A252F823F090
:1024D800FD24000819250008352500088125000875
:1024E8004F2500088125000881250008812500085E
:1024F8006B250008FEF798FB03465A007B685B686B
:102508005B081A447B685B68B2FBF3F3BB8236E076
:10251800FFF724FD03465A007B685B685B081A4492
:102528007B685B68B2FBF3F3BB8228E07B685B687F
:102538005B0803F1F47303F590437A685268B3FBC0
:10254800F2F3BB821BE0FEF767FB03465A007B6889
:102558005B685B081A447B685B68B2FBF3F3BB8279
:102568000DE07B685B685B0803F580327B685B681D
:10257800B2FBF3F3BB8202E00123FB7400BFBB8A0A
:1025880023F00F037B81BB8A5B109BB203F0070328
:102598009AB27B8913437B817B681B687A89DA60EE
:1025A80075E000BF003801400010024000440040C0
:1025B80000480040004C004000500040FB7D082BC4
:1025C80062D801A252F823F0F52500081526000864
:1025D800352600089126000855260008912600088F
:1025E800912600089126000875260008FEF71CFBB6
:1025F80002467B685B685B081A447B685B68B2FBD1
:10260800F3F39AB27B681B68DA6040E0FFF7A6FC38
:1026180002467B685B685B081A447B685B68B2FBB0
:10262800F3F39AB27B681B68DA6030E07B685B681A
:102638005B0803F5740303F510537A685268B3FB1B
:10264800F2F39AB27B681B68DA6020E0FEF7E4FADE
:1026580002467B685B685B081A447B685B68B2FB70
:10266800F3F39AB27B681B68DA6010E07B685B68FA
:102678005B0803F500427B685B68B2FBF3F39AB230
:102688007B681B68DA6002E00123FB7400BFFB7CF7
:1026980018461837BD4680BD80B586B002AF786051
:1026A8000023FB607B680022DA66FEF7A7FAF86071
:1026B8007B681B681B6803F00803082B0ED16FF0BA
:1026C8007E430093FB6800224FF40011786800F005
:1026D80073F80346002B01D0032322E07B681B68B4
:1026E8001B6803F00403042B0ED16FF07E430093A4
:1026F800FB6800224FF48001786800F05DF803461B
:10270800002B01D003230CE07B68202283F869208A
:102718007B68202283F86A207B68002283F868207F
:10272800002318461037BD4680BD80B582B000AF83
:1027380078607B68002B01D1012339E07B6893F82E
:102748006930DBB2002B03D17B68002283F8682054
:102758007B68242283F869207B681B681A687B6879
:102768001B6822F001021A607868FFF795FD03469E
:10277800012B01D101231BE07B681B685A687B6829
:102788001B6822F490425A607B681B689A687B68D1
:102798001B6822F02A029A607B681B681A687B68AB
:1027A8001B6842F001021A607868FFF775FF03465C
:1027B80018460837BD4680BD80B584B000AFF860C4
:1027C800B9603B601346FB712CE0BB69B3F1FF3F76
:1027D80028D0BB69002B07D0FEF710FA02463B68E9
:1027E800D31ABA699A421DD2FB681B681A68FB683B
:1027F8001B6822F4D0721A60FB681B689A68FB6831
:102808001B6822F001029A60FB68202283F8692085
:10281800FB68202283F86A20FB68002283F868207E
:1028280003230FE0FB681B68DA69BB681340BA68CA
:102838009A420CBF01230023DBB21A46FB799A4265
:10284800C3D0002318461037BD4680BD80B588B078
:1028580002AFF860B9603B601346FB8000237B61E0
:10286800FB6893F86930DBB2202B77D1BB68002B6B
:1028780002D0FB88002B01D1012370E0FB6893F89C
:102888006830012B01D1022369E0FB68012283F83B
:102898006820FB680022DA66FB68212283F8692039
:1028A800FEF7ACF97861FB68FA88A3F85020FB685A
:1028B800FA88A3F8522034E0FB68B3F852309BB290
:1028C800013B9AB2FB68A3F852203B6800937B69EE
:1028D80000228021F868FFF76FFF0346002B01D024
:1028E80003233CE0FB689B68B3F5805F11D1FB686C
:1028F8001B69002B0DD1BB683B613B691A88FB68DB
:102908001B68C2F3080292B21A85BB680233BB6027
:1029180007E0BB685A1CBA601A78FB681B6892B259
:102928001A85FB68B3F852309BB2002BC4D13B68C0
:1029380000937B6900224021F868FFF73DFF0346BA
:10294800002B01D003230AE0FB68202283F86920CA
:10295800FB68002283F86820002300E00223184661
:102968001837BD4680BD80B58AB002AFF860B9603F
:102978003B601346FB800023FB61FB6893F86A30D9
:10298800DBB2202B40F09F80BB68002B02D0FB8875
:10299800002B01D1012397E0FB6893F86830012BE5
:1029A80001D1022390E0FB68012283F86820FB68CC
:1029B8001B684FF0FF321A62FB680022DA66FB6878
:1029C800222283F86A20FEF719F9F861FB68FA8871
:1029D800A3F85820FB68FA88A3F85A20FB689B687C
:1029E800B3F5805F0ED1FB681B69002B05D1FB682E
:1029F80040F2FF12A3F85C2015E0FB68FF22A3F861
:102A08005C2010E0FB689B68002B0CD1FB681B69FD
:102A1800002B04D1FB68FF22A3F85C2003E0FB68CD
:102A28007F22A3F85C20FB68B3F85C307B833AE034
:102A3800FB68B3F85A309BB2013B9AB2FB68A3F823
:102A48005A203B680093FB6900222021F868FFF7B1
:102A5800B3FE0346002B01D0032335E0FB689B68D7
:102A6800B3F5805F12D1FB681B69002B0ED1BB68E0
:102A78007B61FB681B689B8C9AB27B8B13409AB274
:102A88007B691A80BB680233BB600CE0FB681B687B
:102A98009B8C9BB2D9B27B8BDAB2BB68581CB860EE
:102AA8000A40D2B21A70FB68B3F85A309BB2002BB6
:102AB800BED1FB68202283F86A20FB68002283F8D5
:102AC8006820002300E0022318462037BD4680BD59
:102AD800002103E00B4B5B58435004310A480B4B71
:102AE80042189A42F6D30A4A02E0002313600432DD
:102AF800084B9A42F9D3AFF3008000F00FF8FDF7C6
:102B080095FCFEE78C2B0008000000201000002038
:102B180010000020CC010020FEE7000070B50D4D2C
:102B28000D4C641BA4100026A64209D10B4D0C4C79
:102B380000F018F8641BA4100026A64205D170BD49
:102B480055F8043B98470136EEE755F8043B98479B
:102B58000136F2E7842B0008842B0008842B000838
:102B6800882B0008F8B500BFF8BC08BC9E46704723
:0C2B7800F8B500BFF8BC08BC9E467047D2
:042B8400AD01000897
:042B880089010008B7
:102B8C003031323334353637383941424344454697
:0400000508002AD9EC
:00000001FF
